:060000000A128A11122809
:10000800FE00030E83120313BC000408BD000A0897
:10001800BE007F08BF000A128A116F2C0A128A11CB
:1000280015280A128A11FC270A128A11CF00831692
:100038000313B601B701B801B901BA01BB01BC018C
:1000480083120313C701C801C901CA01CB01CC013E
:10005800CD01CE0183010A128A1132280A128A11AF
:10006800B9250A128A110A128A1153260A128A110C
:100078000A128A15F0260A128A11831203139F188E
:10008800462847285228F93083160313B4004C2811
:10009800B40B4B284F28831203139F1430304F069C
:1000A800031D5728582868280B300A128A15652717
:1000B8000A128A1122300A128A1565270A128A1131
:1000C80083120313CF01C92831304F06031D6D2851
:1000D8006E28C928C301C30A02300A128A154327A9
:1000E8000A128A11831203134C08803AFF008030E9
:1000F8007F02031D81280A304B02031884288528B3
:100108008E28831203134D08CF003030CE003030D4
:10011800CD00A528831203134C08803AFF008030D5
:100128007F02031D992864304B0203189C289D28E0
:10013800A528831203134E08CF004D08CE00303097
:10014800CD00831203134D0883160313B7002E3016
:10015800B800831203134E0883160313B9008312E1
:1001680003134F0883160313BA00BB01B730831279
:100178000313C3000030C4000A128A11F4240A12BF
:100188008A11303083120313CF00C301C30A013030
:100198000A128A1543270A128A113C308312031364
:1001A800C3008030C4000A128A11F4240A128A118A
:1001B800073083120313C30001300A128A1543273C
:1001C8000A128A11333083120313C3008030C4002B
:1001D8000A128A11F4240A128A11073083120313AF
:1001E800C30002300A128A1543270A128A114130C5
:1001F80083160313A7003608B400B5013408A80015
:100208003508A900BB300A128A1136210A128A1150
:100218000A308316031336020318132914291B29DD
:100228003B08BD003030BC003030BB0027296430AB
:10023800360203182029212927293C08BD003B083C
:10024800BC003030BB00BB3083120313C300003046
:10025800C4000A128A11F4240A128A1141280A12C7
:100268008A11122883160313B200A830AD000D2A94
:10027800253033060319412942294C2932088400C4
:100288003308831380000130AA002A08B2070D2A18
:10029800AE010130A707FF30270784000A128A1130
:1002A8000A260A128A11B300AA00AB012B08003AE9
:1002B80003195F290D2A2A08003A03191D2A643AEE
:1002C80003196A290D3A03196A290D2A2D08840091
:1002D80083130008B000840A0008B1000230AA00A5
:1002E8002A08AD07B11F79297A2983290330AA0082
:1002F8002A08AE04B009B109B00A0319B10AB3015A
:10030800B30A3308AA002A07013E84000A128A1198
:100318000A260A128A11AB000A128A110A260A1240
:100328008A11AC002C083102031D9C292B083002CD
:1003380003189F29A029A129AB290130AA002A085E
:10034800B30705303306031DAA29AB2985292E08D2
:1003580003390319B029B129BA29320884002D308C
:10036800831380000130AA002A08B2073308AF00BF
:10037800042A0A30A3000030A4002F08AA002A0784
:10038800013E84000A128A110A260A128A1183126F
:100398000313C0000A128A110A260A128A11C10020
:1003A80083160313310883120313C3008316031340
:1003B800300883120313C2000A128A115A250A123E
:1003C8008A1183120313410883160313A6008312AC
:1003D8000313400883160313A5000A128A11EE2698
:1003E8000A128A11831603132308303EB300320819
:1003F80084003308831380000130AA002A08B2075A
:10040800FF30AA002A08AF072F0A031D0C2A0D2A5D
:10041800BD290130A707FF30270784000A128A1177
:100428000A260A128A11B3003308031D1C2A1D2A42
:100438003C293208840083138001080083120313C7
:10044800AB002130A600E72A25302C0603192D2AF7
:100458002E2A382A2B0884002C08831380000130A8
:10046800A3002308AB07E72AA7010130A007FF3044
:10047800200784000A128A110A260A128A11AC007F
:10048800A300A4012408003A03194B2AE72A2308E9
:10049800003A0319F72A643A0319562A0D3A031940
:1004A800562AE72A2608840083130008A900840A2C
:1004B8000008AA000230A3002308A607AA1F652A7D
:1004C800662A6F2A0330A3002308A704A909AA09EA
:1004D800A90A0319AA0AAC01AC0A2C08A30023072D
:1004E800013E84000A128A110A260A128A11A400FF
:1004F8000A128A110A260A128A11A50025082A0258
:10050800031D882A2408290203188B2A8C2A8D2A7D
:10051800972A0130A3002308AC0705302C06031DD9
:10052800962A972A712A2708033903199C2A9D2A93
:10053800A62A2B0884002D30831380000130A300E5
:100548002308AB072C08A800DE2A0A30F800003080
:10055800F9002808A3002307013E84000A128A1123
:100568000A260A128A11F0000A128A110A260A12A9
:100578008A11F1002A08F3002908F2000A128A11E8
:100588007C270A128A117108FB007008FA000A1207
:100598008A158B270A128A117808303E83120313B2
:1005A800AC002B0884002C08831380000130A300C2
:1005B8002308AB07FF30A3002308A807280A031D58
:1005C800E62AE72AA92A0130A007FF30200784007D
:1005D8000A128A110A260A128A11AC002C08031D75
:1005E800F62AF72A282A2B0884008313800108009A
:1005F8004130831203139F00831603139F01831650
:100608000317880189019E2B831603170814831684
:1006180003130514D12B1F08C33904389F00831610
:1006280003178814831603138514D12B1F08C339A5
:1006380008389F008316031708158316031305153A
:10064800D12B1F08C3390C389F0083160317881550
:10065800831603138515D12B1F08C33910389F0043
:10066800831603170816831603138516D12B1F0844
:10067800C33914389F00831603178816831603138B
:100688000914D12B1F08C33918389F008316031784
:100698000817831603138914D12B1F08C3391C3874
:1006A8009F00831603178817831603130915D12B88
:1006B8001F08C33920389F008316031709148316AF
:1006C80003130615D12B1F08C33924389F0083163E
:1006D80003178914831603138615D12B1F08C339F2
:1006E80028389F00831603170915831603138614E9
:1006F800D12B1F08C3392C389F008316031789157F
:10070800831603130616D12B1F08C33930389F00F0
:10071800831603170916831603130614D12B1F0813
:10072800C33934389F0083160317891683160313B9
:100738008616D12B831203134108003A0319A52BFF
:10074800D12B4008003A0319082B013A03190F2B43
:10075800033A03191A2B013A0319252B073A0319EF
:10076800302B013A03193B2B033A0319462B013A64
:100778000319512B0F3A03195C2B013A0319672B04
:10078800033A0319722B013A03197D2B073A03190F
:10079800882B013A0319932BD12B080083120313DA
:1007A800A901A31FD82BD92BE62BA009A109A209BF
:1007B800A309A00A0319A10A0319A20A0319A30A83
:1007C800A901A90AA71FE92BEA2BF92BA409A50956
:1007D800A609A709A40A0319A50A0319A60A031951
:1007E800A70A0130FD007D08A9060030AD000030E1
:1007F800AC000030AB000030AA002308220421041A
:1008080020040319082C092C562CA801A80A192C15
:100818000130FD000310A00DA10DA20DA30DFD0BCD
:100828000E2C0130FD007D08A807A31F1C2C1D2CD1
:100838000C2C0130FD000310AA0DAB0DAC0DAD0D55
:10084800FD0B1F2C23082702031D342C2208260227
:10085800031D342C21082502031D342C20082402F2
:10086800031C372C382C472C2008A4022108031C11
:10087800210FA5022208031C220FA6022308031C2D
:10088800230FA7022A1401300310A30CA20CA10CF9
:10089800A00CFF3E031D482C0130A802031D552C57
:1008A800562C1D2C290803195A2C5B2C662CAA09D6
:1008B800AB09AC09AD09AA0A0319AB0A0319AC0ABA
:1008C8000319AD0A2D08A3002C08A2002B08A100CB
:1008D8002A08A00008000C1F722C732CA72C0A12DF
:1008E8008A15F7260A128A11710883120313CC009D
:1008F8007008CB004C08AF004B08AE000030B000C9
:10090800B100FF30B2000030B3000030B400B500D1
:10091800F430B6000130B7000A128A11A2260A1272
:100928008A11831203132F08CC002E08CB00413004
:10093800A0004C08A2004B08A1004D300A128A11F1
:1009480022220A128A11831203138C1EAC2CAD2C9E
:10095800E72C1A08CF0032304F06031DB42CB52CF3
:10096800E72CDD2C1A08BA00BB013A08C9003B087D
:10097800CA002B3049064A04031DC32CC42CD12CB1
:100988000130BA003A0883160313B6070130831200
:100998000313C7000030C800DD2C2D3049064A0477
:1009A800031DD72CD82CDD2C013083160313B60277
:1009B800CA2C470848040319E22CE32CB62C303023
:1009C800CF00C701C8018C120C133F08FF003E0876
:1009D8008A003D0884003C0E8300FE0E7E0E09004E
:1009E80083120313C501C6012D2D4508430783163D
:1009F8000313A10083120313440883160313A000F2
:100A08000318A00A83120313C51F0D2D83160313A1
:100A1800A003831603132008A200220883120313DD
:100A2800FF008316031321088400831203130A129C
:100A38008A1100260A128A110A128A1512270A1226
:100A48008A11013083120313C5070318C60A003040
:100A5800C6074508430783160313A100831203132F
:100A6800440883160313A0000318A00A8312031373
:100A7800C51F412D83160313A003831603132008F3
:100A8800A200220883120313FF0083160313210810
:100A98008400831203130A128A1100260A128A118B
:100AA800003A031D582D592DF92C080083160313FD
:100AB800A101A20183120313400841040319652D03
:100AC800662DAC2D83160313A001A00A782D0130E2
:100AD8000310C00DC10DFF3E031D6C2D0130C40075
:100AE800440883160313A00783120313C11F7D2D27
:100AF8007E2D6B2D0130831603130310A10DA20D5B
:100B0800FF3E031D812D8312031341084302031D79
:100B18008F2D40084202031C922D932D9C2D4008D6
:100B2800C2024108031CC303C30283160313211422
:100B3800013083120310C10CC00CFF3E031D9E2D13
:100B4800013083160313A002031DAB2DAC2D7E2D9F
:100B580083160313220883120313C1008316031399
:100B6800210883120313C0000800413083160313C1
:100B78008F00C0308B0060308C00831203138C010F
:100B8800831603138101003083120313C000C100D0
:100B98000A128A11FC220A128A1180308312031366
:100BA800C0002530C1000030C5000F30C4004230FD
:100BB800C3004030C2000230C6000A128A15C52799
:100BC8000A128A1183160313860188018901831288
:100BD80003138501860188018901C701C8018316AD
:0E0BE8000313B60183120313CB01CC010800E6
:100C0000FF1B0A2E83137F1883170008840A031919
:100C1000FF0A080006308A000408840A82070034AC
:100C2000013400340A34003464340034E8340334CA
:100C30001034273431342E3420344C346534653448
:100C40007234203470346F34743465346E346334E9
:100C500069346F346D346534743472346F342034D5
:100C6000003432342E34203445346E3476346934D2
:100C7000613472342034763461346C346F347234BD
:100C80002034003443346F346E347434613464344B
:100C90006F347234003450344F34543431340034AF
:100CA00025346434003400300A128A11C0270A1235
:100CB0008A11073083120313C4007C30C300C30BB6
:100CC0005F2EC40B5F2E000003300A128A152A27FC
:100CD0000A128A11F93083120313C3006F2EC30B5B
:100CE0006E2E722E03300A128A152A270A128A11D2
:100CF000043083120313C4009030C300C30B7E2E54
:100D0000C40B7E2E000003300A128A152A270A120D
:100D10008A1138300A128A152A270A128A110C30D1
:100D20000A128A152A270A128A1101300A128A1514
:100D30002A270A128A1106300A128A152A270A124D
:100D40008A1108008312031330083202A000310810
:100D5000031C310A3302A100A201A11BA203220835
:100D6000A30030082E02F0003108031C310A2F02C4
:100D7000F100F201F11BF2037208F30034083602AD
:100D8000F4003508031C350A3702F500F601F51B9F
:100D9000F6037608F7000A128A1136270A128A111A
:100DA000730883120313A7007208A6007108A50038
:100DB0007008A4000A128A11D2230A128A1183121F
:100DC000031334082007B80035080318350A210733
:100DD000B9003908AF003808AE00080083160313C5
:100DE000230824040319F52EF62E2F2F8312031344
:100DF000C601C60A082F01300310A30DA40DFF3E43
:100E0000031DFC2E013083120313C5004508C607DD
:100E100083160313A41F0D2F0E2FFB2E831603130F
:100E200024082602031D162F23082502031C192F50
:100E30001A2F202F2308A5022408031CA603A602AC
:100E400001300310A40CA30CFF3E031D212F013021
:100E500083120313C602031D2E2F2F2F0E2F83166E
:100E600003132608A4002508A30008000030FC0096
:100E70000030FB000030FA000030F900701C412FF8
:100E8000422F592F7408F907750803110318013E02
:100E900003194B2FFA07760803110318013E0319B3
:100EA000522FFB07770803110318013E0319592F2E
:100EB000FC070130F8000310F40DF50DF60DF70DE9
:100EC000F80B5B2F01300310F30CF20CF10CF00C5B
:100ED000FF3E031D632F7308720471047004031D29
:100EE000722F732F3E2F7C08F3007B08F2007A08E4
:100EF000F1007908F0000800F501F60170087104AE
:100F00000319832F842FBB2FF701F70A922F01308B
:100F10000310F00DF10DFF3E031D882F0130F4008A
:100F20007408F707F11F952F962F872F01300310B4
:100F3000F50DF60DFF3E031D972F71087302031D7B
:100F4000A32F70087202031CA62FA72FAE2F7008C4
:100F5000F2027108031CF303F3027514013003104D
:100F6000F10CF00CFF3E031DAF2F0130F702031D03
:100F7000BA2FBB2F962F7608F1007508F0000800F5
:100F800083120313C000401CC62FC72FC92F06149D
:100F9000CA2F0610C01CCD2FCE2FD02F8614D12FD4
:100FA0008610401DD42FD52FD72F0615D82F061108
:100FB000C01DDB2FDC2FDE2F8615DF2F8611401E94
:100FC000E22FE32FE52F0616E62F0612C01EE92FAB
:100FD000EA2FEC2F8616ED2F8612401FF02FF12FEF
:100FE000F32F0617F42F0613C01FF72FF82FFA2F31
:0A0FF0008617FB2F8613080030342B
:101DE00001300A128A152A270A128A15080083125E
:101DF00003131E08F200F3017208F0007308F100EB
:101E0000080083120313C1000C1E072F082F112F87
:101E100041089900523083120313C000C00B0E2FEB
:101E20000000080083120313C200081742080A12B8
:101E30008A11C0270A128A158312031388170230E9
:101E400083120313C100C10B232F0000831203135D
:101E50008813080083120313C200081342080A12F1
:101E60008A11C0270A128A15831203138817C730F4
:101E700083120313C1003C2FC10B3B2F3F2F831252
:101E800003138813080083120313C4004403031DC3
:101E90004A2F4B2F552F43087F3EC50045080A1295
:101EA0008A152A270A128A15642F02304406031D58
:101EB0005A2F5B2F642F4308BF3EC50045080A1206
:101EC0008A152A270A128A15080083120313C400F0
:101ED000C3017D2F4308440784000A128A110A2691
:101EE0000A128A150A128A1501270A128A15013068
:101EF00083120313C2004208C30743084407840047
:101F00000A128A110A260A128A15003A031D892F1D
:101F10008A2F6A2F0800780879040319902F912FCF
:101F2000C02FFD01FD0A9F2F01300310F80DF90DA0
:101F3000FF3E031D952F0130FC007C08FD07F91FB3
:101F4000A22FA32F942F79087B02031DA92F7808B5
:101F50007A02031CAC2FAD2FB32F7808FA02790850
:101F6000031CFB03FB0201300310F90CF80CFF3ECD
:101F7000031DB42F0130FD02031DBF2FC02FA32F5F
:101F80007B08F9007A08F80008001930831603135B
:101F900099009A010830831603178700E82F9030C4
:101FA000831203139800831603139801FF2F8312E3
:101FB000031398012430831603139800FF2F9030E9
:101FC0008312031398002430831603139800FF2F05
:101FD00083120313460883160313A000A1012108EE
:101FE000003A0319F42FFF2F2008003A0319CF2FCE
:101FF000013A0319D72F033A0319DF2FFF2F0800E7
:08400000FF3FFF3FFF3FFF3FC0
:04400E00D420FF3F7C
:00000001FF
